{
  "address": "0x6dAC4ecECEDf1Fbc7FE28a7875d2f0542A16b2f5",
  "abi": [
    {
      "inputs": [],
      "stateMutability": "nonpayable",
      "type": "constructor"
    },
    {
      "anonymous": false,
      "inputs": [
        {
          "indexed": false,
          "internalType": "address",
          "name": "withdrawer",
          "type": "address"
        },
        {
          "indexed": false,
          "internalType": "uint256",
          "name": "amount",
          "type": "uint256"
        }
      ],
      "name": "Withdrawn",
      "type": "event"
    },
    {
      "inputs": [
        {
          "internalType": "contract IERC20",
          "name": "currency",
          "type": "address"
        },
        {
          "internalType": "uint256",
          "name": "amount",
          "type": "uint256"
        }
      ],
      "name": "withdraw",
      "outputs": [],
      "stateMutability": "nonpayable",
      "type": "function"
    }
  ],
  "transactionHash": "0x873c18bfd0c0433826955a6f4645b203085132d84f16d061a1f76560c5cb53bc",
  "args": [],
  "numDeployments": 1,
  "solcInputHash": "177f8fcd79ac9c39aab220eb1c3aea39",
  "bytecode": "0x6080604052346100ac5768056bc75e2d631000005f555f80604051610023816100c4565b600f8152602081016e14dd185c9d1a5b99c819985d58d95d608a1b815261008c60646040518093602082019563104c13eb60e21b8752602060248401525180918160448501528484015e86838284010152601f801991011681010301601f1981018352826100e4565b51906a636f6e736f6c652e6c6f675afa5060405161038490816101088239f35b5f80fd5b634e487b7160e01b5f52604160045260245ffd5b604081019081106001600160401b038211176100df57604052565b6100b0565b601f909101601f19168101906001600160401b038211908210176100df5760405256fe60806040526004361015610011575f80fd5b5f3560e01c63f3fef3a314610024575f80fd5b346101ed5760403660031901126101ed576004356001600160a01b038116908190036101ed5760243590335f5260016020526100648260405f2054610257565b5f541061021257335f52600160205260405f20610082838254610257565b905560405163a9059cbb60e01b602082019081523360248301526044808301859052825291906100b3606482610278565b5f806040948551936100c58786610278565b602085527f5361666545524332303a206c6f772d6c6576656c2063616c6c206661696c65646020860152519082865af13d15610205573d9067ffffffffffffffff82116101f1578451610136949092610128601f8201601f191660200185610278565b83523d5f602085013e61029a565b805180610172575b8251338152602081018590527f7084f5476618d8e60b11ef0d7d3f06914655adb8793e28ff7f018d4c76d505d590604090a1005b81602091810103126101ed57602001518015908115036101ed57610197575f8061013e565b5162461bcd60e51b815260206004820152602a60248201527f5361666545524332303a204552433230206f7065726174696f6e20646964206e6044820152691bdd081cdd58d8d9595960b21b6064820152608490fd5b5f80fd5b634e487b7160e01b5f52604160045260245ffd5b916101369260609161029a565b60405162461bcd60e51b815260206004820152601a60248201527f4d6178204c696d69742077696c6c2062652065786365656465640000000000006044820152606490fd5b9190820180921161026457565b634e487b7160e01b5f52601160045260245ffd5b90601f8019910116810190811067ffffffffffffffff8211176101f157604052565b919290156102fc57508151156102ae575090565b3b156102b75790565b60405162461bcd60e51b815260206004820152601d60248201527f416464726573733a2063616c6c20746f206e6f6e2d636f6e74726163740000006044820152606490fd5b82519091501561030f5750805190602001fd5b604460209160405192839162461bcd60e51b83528160048401528051918291826024860152018484015e5f828201840152601f01601f19168101030190fdfea264697066735822122032fd5e61236e9d63c9e56bcf923b1617377a56d10ea79c5ad06f45ccdf8971ac64736f6c634300081a0033",
  "devdoc": {
    "kind": "dev",
    "methods": {},
    "version": 1
  },
  "userdoc": {
    "kind": "user",
    "methods": {},
    "version": 1
  },
  "storageLayout": {
    "storage": [
      {
        "astId": 8806,
        "contract": "src/Faucet.sol:Faucet",
        "label": "max",
        "offset": 0,
        "slot": "0",
        "type": "t_uint256"
      },
      {
        "astId": 8810,
        "contract": "src/Faucet.sol:Faucet",
        "label": "withdrawals",
        "offset": 0,
        "slot": "1",
        "type": "t_mapping(t_address,t_uint256)"
      }
    ],
    "types": {
      "t_address": {
        "encoding": "inplace",
        "label": "address",
        "numberOfBytes": "20"
      },
      "t_mapping(t_address,t_uint256)": {
        "encoding": "mapping",
        "key": "t_address",
        "label": "mapping(address => uint256)",
        "numberOfBytes": "32",
        "value": "t_uint256"
      },
      "t_uint256": {
        "encoding": "inplace",
        "label": "uint256",
        "numberOfBytes": "32"
      }
    }
  }
}