{
  "address": "0x412bA49AC0e82764Dc2898c225bD958C6b58De25",
  "abi": [
    {
      "inputs": [],
      "stateMutability": "nonpayable",
      "type": "constructor"
    },
    {
      "inputs": [
        {
          "internalType": "address",
          "name": "evtAddress",
          "type": "address"
        },
        {
          "internalType": "uint256",
          "name": "ticketCategoryId",
          "type": "uint256"
        }
      ],
      "name": "assignSeats",
      "outputs": [],
      "stateMutability": "nonpayable",
      "type": "function"
    },
    {
      "inputs": [
        {
          "internalType": "uint256",
          "name": "loopCount",
          "type": "uint256"
        }
      ],
      "name": "generateRandomNumber",
      "outputs": [
        {
          "internalType": "uint256",
          "name": "randomNumber",
          "type": "uint256"
        }
      ],
      "stateMutability": "view",
      "type": "function"
    },
    {
      "inputs": [
        {
          "internalType": "address",
          "name": "evtAddress",
          "type": "address"
        },
        {
          "internalType": "uint256",
          "name": "attendeeTokenId",
          "type": "uint256"
        }
      ],
      "name": "getSeatAssignment",
      "outputs": [
        {
          "internalType": "uint256",
          "name": "",
          "type": "uint256"
        }
      ],
      "stateMutability": "view",
      "type": "function"
    },
    {
      "inputs": [
        {
          "internalType": "address",
          "name": "",
          "type": "address"
        },
        {
          "internalType": "uint256",
          "name": "",
          "type": "uint256"
        }
      ],
      "name": "seatAssignments",
      "outputs": [
        {
          "internalType": "uint256",
          "name": "",
          "type": "uint256"
        }
      ],
      "stateMutability": "view",
      "type": "function"
    }
  ],
  "transactionHash": "0x3404504e1264d9cdfffb2020dd898d0704c43fcebe479992bf2766bda98128ba",
  "args": [],
  "numDeployments": 1,
  "solcInputHash": "0fea2ced3ef28ab345c18bc4636eb7a3",
  "bytecode": "0x6080806040523460155761078b908161001a8239f35b5f80fdfe60806040526004361015610011575f80fd5b5f3560e01c80634303707e1461004f57806344ed8b3b1461004557806371a7247c1461004a57638b4f3ed314610045575f80fd5b6100d2565b61011a565b346100bd5760203660031901126100bd575f806004355b80831061007857602082604051908152f35b908243034381116100b8576001916040519060208201924083526040820152846060820152606081526100ac60808261026d565b51902092019190610066565b610225565b5f80fd5b6001600160a01b038116036100bd57565b346100bd5760403660031901126100bd576004356100ef816100c1565b6001600160a01b03165f90815260208181526040808320602435845282529182902054915191825290f35b346100bd5760403660031901126100bd57600435610137816100c1565b6024359061014b6101466102ed565b6106f1565b6101775f61015761028e565b93604051809381926328109bdf60e21b8352600483019190602083019252565b03816001600160a01b0386165afa801561022057610160915f916101fe575b5001519081515f5b8181106101a757005b806101c56101c0846101bb6001958a61069e565b6106ab565b610690565b6001600160a01b0385165f9081526020819052604090206101f7906101ea84896106c9565b515f5260205260405f2090565b550161019e565b61021a91503d805f833e610212818361026d565b81019061052a565b5f610196565b610685565b634e487b7160e01b5f52601160045260245ffd5b634e487b7160e01b5f52604160045260245ffd5b604081019081106001600160401b0382111761026857604052565b610239565b90601f801991011681019081106001600160401b0382111761026857604052565b5f905f5b6002811061029d5750565b918243034381116100b8576001916040519060208201924083526040820152846060820152606081526102d160808261026d565b5190209201610292565b604051906102eb6101808361026d565b565b604051906102fc60408361026d565b6013825272105cdcd9db9a5b99c81cd9585d081cdd185c9d606a1b6020830152565b81601f820112156100bd578051906001600160401b0382116102685760405192610352601f8401601f19166020018561026d565b828452602083830101116100bd57815f9260208093018386015e8301015290565b519063ffffffff821682036100bd57565b51906102eb826100c1565b9080601f830112156100bd57604051916103aa60808461026d565b82916101008201918183116100bd57925b8284106103c9575050505090565b6040848303126100bd57602060409182516103e38161024d565b86518152828701516103f4816100c1565b838201528152019301926103bb565b519081151582036100bd57565b9080601f830112156100bd576040519161042b60808461026d565b8260808201918383116100bd5780915b83831061044a57505050505090565b82516001600160401b0381116100bd5782016040818703126100bd57604051916104738361024d565b81516001600160401b0381116100bd578761048f91840161031e565b83526020820151926001600160401b0384116100bd576104b48860209586950161031e565b8382015281520192019161043b565b9080601f830112156100bd578151916001600160401b038311610268578260051b90604051936104f6602084018661026d565b84526020808501928201019283116100bd57602001905b82821061051a5750505090565b815181526020918201910161050d565b6020818303126100bd578051906001600160401b0382116100bd5701610260818303126100bd576105596102db565b918151835260208201516001600160401b0381116100bd578161057d91840161031e565b602084015261058e60408301610373565b604084015261059f60608301610373565b60608401526105b1816080840161038f565b60808401526105c36101808301610403565b60a08401526105d56101a08301610384565b60c08401526101c08201516001600160401b0381116100bd57816105fa918401610410565b60e08401526101e08201516001600160401b0381116100bd578161061f91840161031e565b6101008401526102008201516001600160401b0381116100bd578161064591840161031e565b6101208401526106586102208301610403565b6101408401526102408201516001600160401b0381116100bd5761067c92016104c3565b61016082015290565b6040513d5f823e3d90fd5b60010190816001116100b857565b919082018092116100b857565b81156106b5570690565b634e487b7160e01b5f52601260045260245ffd5b80518210156106dd5760209160051b010190565b634e487b7160e01b5f52603260045260245ffd5b5f809160405161074260648260208082019563104c13eb60e21b87528160248401528051918291826044860152018484015e86838284010152601f801991011681010301601f19810183528261026d565b51906a636f6e736f6c652e6c6f675afa5056fea2646970667358221220dc7905c776185868f0accdc01952d65a4af01b7a8e60e4f441a06fd93a3c8ead64736f6c634300081a0033",
  "devdoc": {
    "kind": "dev",
    "methods": {},
    "version": 1
  },
  "userdoc": {
    "kind": "user",
    "methods": {},
    "version": 1
  },
  "storageLayout": {
    "storage": [
      {
        "astId": 14174,
        "contract": "src/SeatAssigner.sol:SeatAssigner",
        "label": "seatAssignments",
        "offset": 0,
        "slot": "0",
        "type": "t_mapping(t_address,t_mapping(t_uint256,t_uint256))"
      }
    ],
    "types": {
      "t_address": {
        "encoding": "inplace",
        "label": "address",
        "numberOfBytes": "20"
      },
      "t_mapping(t_address,t_mapping(t_uint256,t_uint256))": {
        "encoding": "mapping",
        "key": "t_address",
        "label": "mapping(address => mapping(uint256 => uint256))",
        "numberOfBytes": "32",
        "value": "t_mapping(t_uint256,t_uint256)"
      },
      "t_mapping(t_uint256,t_uint256)": {
        "encoding": "mapping",
        "key": "t_uint256",
        "label": "mapping(uint256 => uint256)",
        "numberOfBytes": "32",
        "value": "t_uint256"
      },
      "t_uint256": {
        "encoding": "inplace",
        "label": "uint256",
        "numberOfBytes": "32"
      }
    }
  }
}