{
  "address": "0x39958444bB2E83A1648b055F87629b6E339E92b7",
  "abi": [
    {
      "anonymous": false,
      "inputs": [
        {
          "indexed": false,
          "internalType": "address",
          "name": "nftAddress",
          "type": "address"
        },
        {
          "indexed": false,
          "internalType": "uint256",
          "name": "tokenId",
          "type": "uint256"
        },
        {
          "indexed": false,
          "internalType": "address",
          "name": "seller",
          "type": "address"
        }
      ],
      "name": "ListingCanceled",
      "type": "event"
    },
    {
      "anonymous": false,
      "inputs": [
        {
          "indexed": false,
          "internalType": "address",
          "name": "nftAddress",
          "type": "address"
        },
        {
          "indexed": false,
          "internalType": "uint256",
          "name": "tokenId",
          "type": "uint256"
        },
        {
          "indexed": false,
          "internalType": "uint256",
          "name": "price",
          "type": "uint256"
        },
        {
          "indexed": false,
          "internalType": "address",
          "name": "seller",
          "type": "address"
        }
      ],
      "name": "ListingCreated",
      "type": "event"
    },
    {
      "anonymous": false,
      "inputs": [
        {
          "indexed": false,
          "internalType": "address",
          "name": "nftAddress",
          "type": "address"
        },
        {
          "indexed": false,
          "internalType": "uint256",
          "name": "tokenId",
          "type": "uint256"
        },
        {
          "indexed": false,
          "internalType": "address",
          "name": "seller",
          "type": "address"
        },
        {
          "indexed": false,
          "internalType": "address",
          "name": "buyer",
          "type": "address"
        }
      ],
      "name": "ListingPurchased",
      "type": "event"
    },
    {
      "anonymous": false,
      "inputs": [
        {
          "indexed": false,
          "internalType": "address",
          "name": "nftAddress",
          "type": "address"
        },
        {
          "indexed": false,
          "internalType": "uint256",
          "name": "tokenId",
          "type": "uint256"
        },
        {
          "indexed": false,
          "internalType": "uint256",
          "name": "newPrice",
          "type": "uint256"
        },
        {
          "indexed": false,
          "internalType": "address",
          "name": "seller",
          "type": "address"
        }
      ],
      "name": "ListingUpdated",
      "type": "event"
    },
    {
      "inputs": [
        {
          "internalType": "address",
          "name": "nftAddress",
          "type": "address"
        },
        {
          "internalType": "uint256",
          "name": "tokenId",
          "type": "uint256"
        }
      ],
      "name": "cancelListing",
      "outputs": [],
      "stateMutability": "nonpayable",
      "type": "function"
    },
    {
      "inputs": [
        {
          "internalType": "address",
          "name": "nftAddress",
          "type": "address"
        },
        {
          "internalType": "uint256",
          "name": "tokenId",
          "type": "uint256"
        },
        {
          "internalType": "uint256",
          "name": "price",
          "type": "uint256"
        }
      ],
      "name": "createListing",
      "outputs": [],
      "stateMutability": "nonpayable",
      "type": "function"
    },
    {
      "inputs": [
        {
          "internalType": "address",
          "name": "seller",
          "type": "address"
        },
        {
          "internalType": "address",
          "name": "nftAddress",
          "type": "address"
        },
        {
          "internalType": "uint256",
          "name": "tokenId",
          "type": "uint256"
        },
        {
          "internalType": "uint256",
          "name": "price",
          "type": "uint256"
        }
      ],
      "name": "createListingForSeller",
      "outputs": [],
      "stateMutability": "nonpayable",
      "type": "function"
    },
    {
      "inputs": [
        {
          "internalType": "address",
          "name": "nftAddress",
          "type": "address"
        },
        {
          "internalType": "uint256",
          "name": "tokenId",
          "type": "uint256"
        }
      ],
      "name": "isNftListed",
      "outputs": [
        {
          "internalType": "bool",
          "name": "",
          "type": "bool"
        }
      ],
      "stateMutability": "view",
      "type": "function"
    },
    {
      "inputs": [
        {
          "internalType": "address",
          "name": "",
          "type": "address"
        },
        {
          "internalType": "uint256",
          "name": "",
          "type": "uint256"
        }
      ],
      "name": "listings",
      "outputs": [
        {
          "internalType": "uint256",
          "name": "price",
          "type": "uint256"
        },
        {
          "internalType": "address",
          "name": "seller",
          "type": "address"
        }
      ],
      "stateMutability": "view",
      "type": "function"
    },
    {
      "inputs": [
        {
          "internalType": "address",
          "name": "nftAddress",
          "type": "address"
        },
        {
          "internalType": "uint256",
          "name": "tokenId",
          "type": "uint256"
        }
      ],
      "name": "purchaseListing",
      "outputs": [],
      "stateMutability": "payable",
      "type": "function"
    },
    {
      "inputs": [
        {
          "internalType": "address",
          "name": "nftAddress",
          "type": "address"
        },
        {
          "internalType": "uint256",
          "name": "tokenId",
          "type": "uint256"
        },
        {
          "internalType": "uint256",
          "name": "newPrice",
          "type": "uint256"
        }
      ],
      "name": "updateListing",
      "outputs": [],
      "stateMutability": "nonpayable",
      "type": "function"
    }
  ],
  "transactionHash": "0xf08dddc07d5a7042ecb48348003b2b9f42046ceca6e00b5cd274c5f5421d5d74",
  "args": [],
  "numDeployments": 1,
  "solcInputHash": "930cc7c3c387905db14b86c4e853487e",
  "bytecode": "0x60808060405234601557610c58908161001a8239f35b5f80fdfe6080806040526004361015610012575f80fd5b5f905f3560e01c90816207df30146109615750806305730cc61461091c57806324780c561461071957806389cf90e5146104ce578063a7fc91b914610281578063b2ddee061461019a5763f772adf11461006a575f80fd5b3461019757610078366109c9565b9060018060a01b03831680855284602052604085208286526020526100a260408620541515610bb6565b6040516331a9108f60e11b81526004810183905293602085602481855afa91821561018c57610108610157937f3199bfdff711ec1ab8ab8449dc3b8d3fa30a59861a734a9d26f7b1a38162df7597899161015d575b506001600160a01b03163314610ab0565b610113851515610afc565b865260208681526040808820858952825280882086905580516001600160a01b03909316835290820193909352918201929092523360608201529081906080820190565b0390a180f35b61017f915060203d602011610185575b6101778183610a6f565b810190610a91565b5f6100f7565b503d61016d565b6040513d88823e3d90fd5b80fd5b5034610197576040366003190112610197576101b46109b3565b6001600160a01b03168082526020828152604080842060243580865292528320546101e0901515610bb6565b6040516331a9108f60e11b81526004810182905291602083602481845afa918215610276576102446060937fcf45896873f759e6a8c2348e49ff9892b89458850ab6c70339e1c430227ce91d95879161015d57506001600160a01b03163314610ab0565b81855284602052604085208186526020528460016040822082815501556040519182526020820152336040820152a180f35b6040513d86823e3d90fd5b506040366003190112610479576102966109b3565b6024359060018060a01b0316805f525f60205260405f20825f526020526102c260405f20541515610bb6565b805f525f60205260405f20825f5260205260405f2090604051916102e583610a3f565b80548084526001909101546001600160a01b03166020909301928352340361047d575f8181526020818152604080832086845290915281208181556001015581516001600160a01b0316813b156104795760405190632142170760e11b825260048201523360248201528360448201525f8160648183865af1801561046e57610459575b50838080803460018060a01b038751165af13d15610454573d67ffffffffffffffff811161044057604051906103a9601f8201601f191660200183610a6f565b81528560203d92013e5b15610402577fab7369fca6913c40e2bf7144b586a1a0e894bd32f5f9e74128cd89fb54f7bf949260809260018060a01b039051169060405192835260208301526040820152336060820152a180f35b60405162461bcd60e51b815260206004820152601660248201527508cc2d2d8cac840e8de40e8e4c2dce6cccae440cae8d60531b6044820152606490fd5b634e487b7160e01b86526041600452602486fd5b6103b3565b6104669194505f90610a6f565b5f925f610369565b6040513d5f823e3d90fd5b5f80fd5b60405162461bcd60e51b8152602060048201526024808201527f5469636b65744d61726b65743a20496e636f72726563742045544820737570706044820152631b1a595960e21b6064820152608490fd5b34610479576080366003190112610479576104e76109b3565b6024356001600160a01b03811691908281036104795760443591606435845f525f60205260405f20845f5260205261052360405f2054156109f3565b6040516331a9108f60e11b815260048101859052602081602481895afa90811561046e575f916106fa575b506001600160a01b038381169161056791168214610ab0565b610572821515610afc565b60405163e985e9c560e01b81526001600160a01b03841660048201523060248201526020816044818a5afa90811561046e575f916106cb575b50801561064c575b9060015f80516020610c03833981519152976105d3610647969594610b60565b604051906105e082610a3f565b84825260208083019485525f91825281815260408083208b84528252918290209251835593519290910180546001600160a01b0319166001600160a01b03938416179055805196821687529186019690965284015290921660608201529081906080820190565b0390a1005b5060405163020604bf60e21b8152600481018690529291906020846024818a5afa801561046e575f80516020610c03833981519152976105d3600192610647975f916106ac575b503090848060a01b0316149394959650509750506105b3565b6106c5915060203d602011610185576101778183610a6f565b8b610693565b6106ed915060203d6020116106f3575b6106e58183610a6f565b810190610b48565b876105ab565b503d6106db565b610713915060203d602011610185576101778183610a6f565b8661054e565b3461047957610727366109c9565b9060018060a01b038316805f525f60205260405f20825f5260205261075060405f2054156109f3565b6040516331a9108f60e11b815260048101839052602081602481855afa801561046e5761078e915f916108fd57506001600160a01b03163314610ab0565b610799831515610afc565b60405163e985e9c560e01b8152336004820152306024820152602081604481855afa90811561046e575f916108de575b508015610864575b93610647916107ed5f80516020610c0383398151915296610b60565b60016040516107fb81610a3f565b8681523360208083018281525f95865285825260408087208a885283529586902093518455519390920180546001600160a01b0319166001600160a01b039485161790558351949092168452830194909452810193909352606083019190915281906080820190565b5060405163020604bf60e21b81526004810183905293602085602481855afa91821561046e576107ed610647935f80516020610c03833981519152975f916108bf575b50929650909250506001600160a01b031630146107d1565b6108d8915060203d602011610185576101778183610a6f565b886108a7565b6108f7915060203d6020116106f3576106e58183610a6f565b856107c9565b610916915060203d602011610185576101778183610a6f565b866100f7565b34610479576040366003190112610479576001600160a01b0361093d6109b3565b165f525f60205260405f206024355f52602052602060405f20541515604051908152f35b34610479576040366003190112610479576040906001600160a01b036109856109b3565b165f525f602052815f206024355f52602052815f208054906001808060a01b03910154169082526020820152f35b600435906001600160a01b038216820361047957565b6060906003190112610479576004356001600160a01b038116810361047957906024359060443590565b156109fa57565b60405162461bcd60e51b815260206004820152601c60248201527f5469636b65744d61726b65743a20416c7265616479206c6973746564000000006044820152606490fd5b6040810190811067ffffffffffffffff821117610a5b57604052565b634e487b7160e01b5f52604160045260245ffd5b90601f8019910116810190811067ffffffffffffffff821117610a5b57604052565b9081602091031261047957516001600160a01b03811681036104795790565b15610ab757565b60405162461bcd60e51b815260206004820152601b60248201527f5469636b65744d61726b65743a204e6f7420746865206f776e657200000000006044820152606490fd5b15610b0357565b60405162461bcd60e51b815260206004820152601f60248201527f5469636b65744d61726b65743a205072696365206d757374206265203e2030006044820152606490fd5b90816020910312610479575180151581036104795790565b15610b6757565b60405162461bcd60e51b815260206004820152602160248201527f5469636b65744d61726b65743a204e6f20617070726f76616c20666f72204e466044820152601560fa1b6064820152608490fd5b15610bbd57565b60405162461bcd60e51b815260206004820152601860248201527f5469636b65744d61726b65743a204e6f74206c697374656400000000000000006044820152606490fdfedc801191e0c92935648f61c8e3d0cd8eac1d060269ddb920487d02ab0be69e7da2646970667358221220775818ff450e97d621806fd053bc9036781af7273695db3a228cbf812618196d64736f6c634300081a0033",
  "devdoc": {
    "kind": "dev",
    "methods": {},
    "version": 1
  },
  "userdoc": {
    "kind": "user",
    "methods": {},
    "version": 1
  },
  "storageLayout": {
    "storage": [
      {
        "astId": 19642,
        "contract": "src/TicketMarket.sol:TicketMarket",
        "label": "listings",
        "offset": 0,
        "slot": "0",
        "type": "t_mapping(t_address,t_mapping(t_uint256,t_struct(Listing)19635_storage))"
      }
    ],
    "types": {
      "t_address": {
        "encoding": "inplace",
        "label": "address",
        "numberOfBytes": "20"
      },
      "t_mapping(t_address,t_mapping(t_uint256,t_struct(Listing)19635_storage))": {
        "encoding": "mapping",
        "key": "t_address",
        "label": "mapping(address => mapping(uint256 => struct TicketMarket.Listing))",
        "numberOfBytes": "32",
        "value": "t_mapping(t_uint256,t_struct(Listing)19635_storage)"
      },
      "t_mapping(t_uint256,t_struct(Listing)19635_storage)": {
        "encoding": "mapping",
        "key": "t_uint256",
        "label": "mapping(uint256 => struct TicketMarket.Listing)",
        "numberOfBytes": "32",
        "value": "t_struct(Listing)19635_storage"
      },
      "t_struct(Listing)19635_storage": {
        "encoding": "inplace",
        "label": "struct TicketMarket.Listing",
        "members": [
          {
            "astId": 19632,
            "contract": "src/TicketMarket.sol:TicketMarket",
            "label": "price",
            "offset": 0,
            "slot": "0",
            "type": "t_uint256"
          },
          {
            "astId": 19634,
            "contract": "src/TicketMarket.sol:TicketMarket",
            "label": "seller",
            "offset": 0,
            "slot": "1",
            "type": "t_address"
          }
        ],
        "numberOfBytes": "64"
      },
      "t_uint256": {
        "encoding": "inplace",
        "label": "uint256",
        "numberOfBytes": "32"
      }
    }
  }
}