{
  "address": "0xD5EE413aEEbC9535c0415c730b3512CD20c18756",
  "abi": [
    {
      "inputs": [
        {
          "internalType": "uint256",
          "name": "_eventCreationFee",
          "type": "uint256"
        }
      ],
      "stateMutability": "nonpayable",
      "type": "constructor"
    },
    {
      "inputs": [],
      "name": "CurrencySendFailure",
      "type": "error"
    },
    {
      "inputs": [],
      "name": "NotEnoughEventCreationFee",
      "type": "error"
    },
    {
      "anonymous": false,
      "inputs": [
        {
          "indexed": true,
          "internalType": "address",
          "name": "previousOwner",
          "type": "address"
        },
        {
          "indexed": true,
          "internalType": "address",
          "name": "newOwner",
          "type": "address"
        }
      ],
      "name": "OwnershipTransferred",
      "type": "event"
    },
    {
      "anonymous": false,
      "inputs": [
        {
          "indexed": true,
          "internalType": "address",
          "name": "owner",
          "type": "address"
        },
        {
          "indexed": true,
          "internalType": "uint256",
          "name": "eventID",
          "type": "uint256"
        }
      ],
      "name": "eventCreated",
      "type": "event"
    },
    {
      "inputs": [
        {
          "internalType": "address",
          "name": "currency",
          "type": "address"
        },
        {
          "internalType": "uint256",
          "name": "valueToWithdraw",
          "type": "uint256"
        }
      ],
      "name": "adminWithdrawal",
      "outputs": [],
      "stateMutability": "nonpayable",
      "type": "function"
    },
    {
      "inputs": [
        {
          "internalType": "address",
          "name": "owner",
          "type": "address"
        },
        {
          "internalType": "uint256",
          "name": "start",
          "type": "uint256"
        },
        {
          "internalType": "uint256",
          "name": "offset",
          "type": "uint256"
        }
      ],
      "name": "allOwnersEvents",
      "outputs": [
        {
          "internalType": "uint256[]",
          "name": "",
          "type": "uint256[]"
        }
      ],
      "stateMutability": "view",
      "type": "function"
    },
    {
      "inputs": [
        {
          "internalType": "string",
          "name": "ticketNFTName",
          "type": "string"
        },
        {
          "internalType": "string",
          "name": "ticketNFTSymbol",
          "type": "string"
        },
        {
          "components": [
            {
              "internalType": "uint256",
              "name": "id",
              "type": "uint256"
            },
            {
              "internalType": "string",
              "name": "name",
              "type": "string"
            },
            {
              "internalType": "string",
              "name": "desc",
              "type": "string"
            },
            {
              "internalType": "enum Types.EventTypes",
              "name": "eventType",
              "type": "uint8"
            },
            {
              "internalType": "string",
              "name": "orgName",
              "type": "string"
            },
            {
              "internalType": "string",
              "name": "logo",
              "type": "string"
            },
            {
              "internalType": "string",
              "name": "email",
              "type": "string"
            },
            {
              "internalType": "uint256",
              "name": "date",
              "type": "uint256"
            },
            {
              "internalType": "string",
              "name": "website",
              "type": "string"
            },
            {
              "internalType": "uint256",
              "name": "ticketsSold",
              "type": "uint256"
            },
            {
              "internalType": "uint256",
              "name": "maxCapacity",
              "type": "uint256"
            },
            {
              "internalType": "address",
              "name": "owner",
              "type": "address"
            }
          ],
          "internalType": "struct Types.EventStruct",
          "name": "eventDetails",
          "type": "tuple"
        }
      ],
      "name": "createNewEvent",
      "outputs": [],
      "stateMutability": "payable",
      "type": "function"
    },
    {
      "inputs": [
        {
          "internalType": "uint256",
          "name": "index",
          "type": "uint256"
        }
      ],
      "name": "eventAt",
      "outputs": [
        {
          "internalType": "address",
          "name": "value",
          "type": "address"
        }
      ],
      "stateMutability": "view",
      "type": "function"
    },
    {
      "inputs": [],
      "name": "eventCreationFee",
      "outputs": [
        {
          "internalType": "uint256",
          "name": "",
          "type": "uint256"
        }
      ],
      "stateMutability": "view",
      "type": "function"
    },
    {
      "inputs": [],
      "name": "eventsSize",
      "outputs": [
        {
          "internalType": "uint256",
          "name": "size",
          "type": "uint256"
        }
      ],
      "stateMutability": "view",
      "type": "function"
    },
    {
      "inputs": [
        {
          "internalType": "address",
          "name": "ownerAddress",
          "type": "address"
        }
      ],
      "name": "getOwnedTickets",
      "outputs": [
        {
          "components": [
            {
              "internalType": "uint256",
              "name": "eventId",
              "type": "uint256"
            },
            {
              "internalType": "uint256",
              "name": "startTicket",
              "type": "uint256"
            },
            {
              "internalType": "uint256",
              "name": "endTicket",
              "type": "uint256"
            }
          ],
          "internalType": "struct EventManager.TicketSale[]",
          "name": "",
          "type": "tuple[]"
        }
      ],
      "stateMutability": "view",
      "type": "function"
    },
    {
      "inputs": [],
      "name": "owner",
      "outputs": [
        {
          "internalType": "address",
          "name": "",
          "type": "address"
        }
      ],
      "stateMutability": "view",
      "type": "function"
    },
    {
      "inputs": [
        {
          "internalType": "address",
          "name": "ownerAddress",
          "type": "address"
        },
        {
          "internalType": "uint256",
          "name": "eventId",
          "type": "uint256"
        },
        {
          "internalType": "uint256",
          "name": "ticketStart",
          "type": "uint256"
        },
        {
          "internalType": "uint256",
          "name": "ticketEnd",
          "type": "uint256"
        }
      ],
      "name": "recordTicketsale",
      "outputs": [],
      "stateMutability": "nonpayable",
      "type": "function"
    },
    {
      "inputs": [],
      "name": "renounceOwnership",
      "outputs": [],
      "stateMutability": "nonpayable",
      "type": "function"
    },
    {
      "inputs": [
        {
          "internalType": "uint256",
          "name": "newEventCreationFee",
          "type": "uint256"
        }
      ],
      "name": "setEventCreationFee",
      "outputs": [],
      "stateMutability": "nonpayable",
      "type": "function"
    },
    {
      "inputs": [
        {
          "internalType": "uint256",
          "name": "newticketTransactionFee",
          "type": "uint256"
        }
      ],
      "name": "setTicketTransactionFee",
      "outputs": [],
      "stateMutability": "nonpayable",
      "type": "function"
    },
    {
      "inputs": [],
      "name": "ticketTransactionFee",
      "outputs": [
        {
          "internalType": "uint256",
          "name": "",
          "type": "uint256"
        }
      ],
      "stateMutability": "view",
      "type": "function"
    },
    {
      "inputs": [
        {
          "internalType": "address",
          "name": "newOwner",
          "type": "address"
        }
      ],
      "name": "transferOwnership",
      "outputs": [],
      "stateMutability": "nonpayable",
      "type": "function"
    },
    {
      "stateMutability": "payable",
      "type": "receive"
    }
  ],
  "transactionHash": "0x9d26fe7b3ee217279913174d04a05277bc3f94fad31b3aa52a91dcf51d3c7782",
  "args": [
    "10000000000000"
  ],
  "numDeployments": 1,
  "solcInputHash": "0fea2ced3ef28ab345c18bc4636eb7a3",
  "bytecode": "0x608034609d57601f6151b938819003918201601f19168301916001600160401b0383118484101760a157808492602094604052833981010312609d57515f8054336001600160a01b0319821681178355604051939290916001600160a01b0316907f8be0079c531659141344cd1fd0a4f28419497f9722a3daafe3b4186f6b6457e09080a35f6006556101f460075560055561510390816100b68239f35b5f80fd5b634e487b7160e01b5f52604160045260245ffdfe608080604052600436101561001c575b50361561001a575f80fd5b005b5f3560e01c9081630c3fabeb14610b0f5750806332b1ea3214610add57806337307c3d146109f15780634527746f146108ff578063516e6a20146108de57806360c04ce2146108bd5780636f5e80d8146108a0578063715018a6146108495780638da5cb5b146108225780638ff62129146108055780639c25a5e914610380578063d4cfd7b7146102de578063e4f5e2f61461018c5763f2fde38b146100c2575f61000f565b34610188576020366003190112610188576100db610b29565b6100e3610c5a565b6001600160a01b03168015610134575f80546001600160a01b03198116831782556001600160a01b0316907f8be0079c531659141344cd1fd0a4f28419497f9722a3daafe3b4186f6b6457e09080a3005b60405162461bcd60e51b815260206004820152602660248201527f4f776e61626c653a206e6577206f776e657220697320746865207a65726f206160448201526564647265737360d01b6064820152608490fd5b5f80fd5b34610188576060366003190112610188576101a5610b29565b6001600160a01b03165f818152600360205260409020546044359060243590808210156102d6575b806101d88484610c2c565b116102c2575b506101e882610bdc565b926101f66040519485610b5a565b82845261020283610bdc565b6020850190601f1901368237825b61021a8585610c2c565b81101561027e57825f5260036020526102368160405f20610c17565b90549060031b1c906102488582610c4d565b90875182101561026a5761021a92602060019360051b8a010152019050610210565b634e487b7160e01b5f52603260045260245ffd5b8186604051918291602083019060208452518091526040830191905f5b8181106102a9575050500390f35b825184528594506020938401939092019160010161029b565b819250906102cf91610c4d565b90836101de565b5f91506101cd565b34610188576080366003190112610188576001600160a01b036102ff610b29565b165f52600460205260405f206040519061031882610b3f565b6024358252602082016044358152604083019060643582528254600160401b81101561036c576001810180855581101561026a576002935f52600360205f2091020193518455516001840155519101555f80f35b634e487b7160e01b5f52604160045260245ffd5b6060366003190112610188576004356001600160401b038111610188576103ab903690600401610b96565b6024356001600160401b038111610188576103ca903690600401610b96565b906044356001600160401b038111610188576101806003198236030112610188576040519061018082018281106001600160401b0382111761036c576040528060040135825260248101356001600160401b038111610188576104339060043691840101610b96565b602083015260448101356001600160401b0381116101885761045b9060043691840101610b96565b60408301526064810135600281101561018857606083015260848101356001600160401b038111610188576104969060043691840101610b96565b608083015260a48101356001600160401b038111610188576104be9060043691840101610b96565b60a083015260c48101356001600160401b038111610188576104e69060043691840101610b96565b60c083015260e481013560e0830152610104810135906001600160401b0382116101885761051d6101649260043691840101610b96565b61010084015261012481013561012084015261014481013561014084015201356001600160a01b038116810361018857610160820152600554806107ea575b50600160025401806002553361016083015281526006549060075490604051948561441c8101106001600160401b0361441c8801111761036c5761441c610cb2873960c061441c870152815160c061441c880101526105f46105d7602084015161018060e061441c8b01015261024061441c8a010190610bf3565b604084015161441c890180830360bf190161010090910152610bf3565b9160608101519060028210156107d65787966106ae61067f61066261064461070b986106f5976101208e61441c01015260808701518d61014060bf1961441c83018503019161441c010152610bf3565b60a086015161441c8d0180830360bf19016101609190910152610bf3565b60c085015161441c8c0180830360bf190161018090910152610bf3565b60e08401516101a061441c8c01015261010084015160bf1961441c8c018303016101c061441c8d010152610bf3565b61012083015161441c8a016101e0810191909152610140840151610200820152610160909301516001600160a01b0316610220840152828103602090930192909252610bf3565b9061441c86018203604061441c88010152610bf3565b9130606061441c86010152608061441c8501015260a061441c8401015203905ff080156107cb576002545f52600160205260405f209060018060a01b03166bffffffffffffffffffffffff60a01b825416179055335f52600360205260405f20600254908054600160401b81101561036c5761078c91600182018155610c17565b819291549060031b91821b915f19901b1916179055600254337f6c187a21126f97259f4571813b2fd10bb11732bf880540a1b462dced7a21b5dd5f80a3005b6040513d5f823e3d90fd5b634e487b7160e01b5f52602160045260245ffd5b34106107f6578361055c565b634938dce360e01b5f5260045ffd5b34610188575f366003190112610188576020600554604051908152f35b34610188575f366003190112610188575f546040516001600160a01b039091168152602090f35b34610188575f36600319011261018857610861610c5a565b5f80546001600160a01b0319811682556001600160a01b03167f8be0079c531659141344cd1fd0a4f28419497f9722a3daafe3b4186f6b6457e08280a3005b34610188575f366003190112610188576020600754604051908152f35b34610188576020366003190112610188576108d6610c5a565b600435600555005b34610188576020366003190112610188576108f7610c5a565b600435600755005b34610188576020366003190112610188576001600160a01b03610920610b29565b165f52600460205260405f2080549061093882610bdc565b916109466040519384610b5a565b8083526020830180925f5260205f205f915b8383106109ba578486604051918291602083019060208452518091526040830191905f5b81811061098a575050500390f35b9193509160206060600192604087518051835284810151858401520151604082015201940191019184939261097c565b600360206001926040516109cd81610b3f565b85548152848601548382015260028601546040820152815201920192019190610958565b34610188576040366003190112610188575f610a0b610b29565b60243590610a17610c5a565b6001600160a01b031680158314610a73575081808092335af13d15610a6e573d610a4081610b7b565b90610a4e6040519283610b5a565b81525f60203d92013e5b15610a5f57005b63036b46f360e01b5f5260045ffd5b610a58565b606460209260405194859384926323b872dd60e01b845230600485015233602485015260448401525af180156107cb57610aa957005b6020813d602011610ad5575b81610ac260209383610b5a565b8101031261018857518015150361018857005b3d9150610ab5565b34610188576020366003190112610188576004355f526001602052602060018060a01b0360405f205416604051908152f35b34610188575f366003190112610188576020906002548152f35b600435906001600160a01b038216820361018857565b606081019081106001600160401b0382111761036c57604052565b90601f801991011681019081106001600160401b0382111761036c57604052565b6001600160401b03811161036c57601f01601f191660200190565b81601f8201121561018857803590610bad82610b7b565b92610bbb6040519485610b5a565b8284526020838301011161018857815f926020809301838601378301015290565b6001600160401b03811161036c5760051b60200190565b805180835260209291819084018484015e5f828201840152601f01601f1916010190565b805482101561026a575f5260205f2001905f90565b91908201809211610c3957565b634e487b7160e01b5f52601160045260245ffd5b91908203918211610c3957565b5f546001600160a01b03163303610c6d57565b606460405162461bcd60e51b815260206004820152602060248201527f4f776e61626c653a2063616c6c6572206973206e6f7420746865206f776e65726044820152fdfe608060405234610d285761441c8038038061001981610d2c565b92833981019060c081830312610d285780516001600160401b038111610d285781019161018083820312610d28576040519161018083016001600160401b038111848210176106a5576040528351835260208401516001600160401b038111610d285782610088918601610d51565b6020840190815260408501516001600160401b038111610d2857836100ae918701610d51565b6040850190815260608601516002811015610d28576060860190815260808701516001600160401b038111610d2857856100e9918901610d51565b6080870190815260a08801516001600160401b038111610d28578661010f918a01610d51565b60a0880190815260c08901516001600160401b038111610d285787610135918b01610d51565b9060c0890191825260e08a01519260e08a019384526101008b01519460018060401b038611610d28578a966101606101206101748f998e908b01610d51565b986101008b01998a5201519d6101208a019e8f52610140808201519a01998a5201519860018060a01b038a168a03610d28576101608d01998a5260208b01516001600160401b038111610d28578c6101cd918d01610d51565b60408c0151909c6001600160401b038211610d28576101ed918d01610d51565b60608c01516001600160a01b0381169e91908f03610d285760808d015160a0909d01518e51909e6001600160401b0382116106a5575f5490600182811c92168015610d1e575b60208310146106875781601f849311610cb1575b50602090601f8311600114610c4e575f92610c43575b50508160011b915f199060031b1c1916175f555b8051906001600160401b0382116106a55760015490600182811c92168015610c39575b60208310146106875781601f849311610bcb575b50602090601f8311600114610b65575f92610b5a575b50508160011b915f199060031b1c1916176001555b6102dc33610da2565b6101f4601d55655af3107a4000601a5551600d55518051906001600160401b0382116106a557600e5490600182811c92168015610b50575b60208310146106875781601f849311610ae2575b50602090601f8311600114610a7c575f92610a71575b50508160011b915f199060031b1c191617600e555b518051906001600160401b0382116106a557600f5490600182811c92168015610a67575b60208310146106875781601f8493116109f9575b50602090601f8311600114610993575f92610988575b50508160011b915f199060031b1c191617600f555b5160028110156109745760ff8019601054169116176010555180519060018060401b0382116106a55760115490600182811c9216801561096a575b60208310146106875781601f8493116108fc575b50602090601f8311600114610896575f9261088b575b50508160011b915f199060031b1c1916176011555b518051906001600160401b0382116106a55760125490600182811c92168015610881575b60208310146106875781601f849311610813575b50602090601f83116001146107ad575f926107a2575b50508160011b915f199060031b1c1916176012555b518051906001600160401b0382116106a55760135490600182811c92168015610798575b60208310146106875781601f84931161072a575b50602090601f83116001146106c4575f926106b9575b50508160011b915f199060031b1c1916176013555b516014555180519096906001600160401b0381116106a557601554600181811c9116801561069b575b602082101461068757601f8111610624575b506020601f82116001146105bd5781906105a3995f926105b2575b50508160011b915f199060031b1c1916176015555b505160175551601880546001600160a01b039092166001600160a01b031992831681179091555f601655601b8054909216949094179055601a55601d55610da2565b6040516136319081610deb8239f35b015190505f8061054c565b601f1982169860155f52815f20995f5b81811061060c5750916105a39a918460019594106105f4575b505050811b01601555610561565b01515f1960f88460031b161c191690555f80806105e6565b838301518c556001909b019a602093840193016105cd565b60155f527f55f448fdea98c4d29eb340757ef0a66cd03dbb9538908a6a81d96026b71ec475601f830160051c8101916020841061067d575b601f0160051c01905b8181106106725750610531565b5f8155600101610665565b909150819061065c565b634e487b7160e01b5f52602260045260245ffd5b90607f169061051f565b634e487b7160e01b5f52604160045260245ffd5b015190505f806104e1565b60135f9081528281209350601f198516905b81811061071257509084600195949392106106fa575b505050811b016013556104f6565b01515f1960f88460031b161c191690555f80806106ec565b929360206001819287860151815501950193016106d6565b60135f529091507f66de8ffda797e3de9c05e8fc57b3bf0ec28a930d40b0d285d93c06501cf6a090601f840160051c8101916020851061078e575b90601f859493920160051c01905b81811061078057506104cb565b5f8155849350600101610773565b9091508190610765565b91607f16916104b7565b015190505f8061047e565b60125f9081528281209350601f198516905b8181106107fb57509084600195949392106107e3575b505050811b01601255610493565b01515f1960f88460031b161c191690555f80806107d5565b929360206001819287860151815501950193016107bf565b60125f529091507fbb8a6a4669ba250d26cd7a459eca9d215f8307e33aebe50379bc5a3617ec3444601f840160051c81019160208510610877575b90601f859493920160051c01905b8181106108695750610468565b5f815584935060010161085c565b909150819061084e565b91607f1691610454565b015190505f8061041b565b60115f9081528281209350601f198516905b8181106108e457509084600195949392106108cc575b505050811b01601155610430565b01515f1960f88460031b161c191690555f80806108be565b929360206001819287860151815501950193016108a8565b60115f529091507f31ecc21a745e3968a04e9570e4425bc18fa8019c68028196b546d1669c200c68601f840160051c81019160208510610960575b90601f859493920160051c01905b8181106109525750610405565b5f8155849350600101610945565b9091508190610937565b91607f16916103f1565b634e487b7160e01b5f52602160045260245ffd5b015190505f806103a1565b600f5f9081528281209350601f198516905b8181106109e157509084600195949392106109c9575b505050811b01600f556103b6565b01515f1960f88460031b161c191690555f80806109bb565b929360206001819287860151815501950193016109a5565b600f5f529091507f8d1108e10bcb7c27dddfc02ed9d693a074039d026cf4ea4240b40f7d581ac802601f840160051c81019160208510610a5d575b90601f859493920160051c01905b818110610a4f575061038b565b5f8155849350600101610a42565b9091508190610a34565b91607f1691610377565b015190505f8061033e565b600e5f9081528281209350601f198516905b818110610aca5750908460019594939210610ab2575b505050811b01600e55610353565b01515f1960f88460031b161c191690555f8080610aa4565b92936020600181928786015181550195019301610a8e565b600e5f529091507fbb7b4a454dc3493923482f07822329ed19e8244eff582cc204f8554c3620c3fd601f840160051c81019160208510610b46575b90601f859493920160051c01905b818110610b385750610328565b5f8155849350600101610b2b565b9091508190610b1d565b91607f1691610314565b015190505f806102be565b60015f9081528281209350601f198516905b818110610bb35750908460019594939210610b9b575b505050811b016001556102d3565b01515f1960f88460031b161c191690555f8080610b8d565b92936020600181928786015181550195019301610b77565b60015f529091507fb10e2d527612073b26eecdfd717e6a320cf44b4afac2b0732d9fcbe2b7fa0cf6601f840160051c81019160208510610c2f575b90601f859493920160051c01905b818110610c2157506102a8565b5f8155849350600101610c14565b9091508190610c06565b91607f1691610294565b015190505f8061025d565b5f8080528281209350601f198516905b818110610c995750908460019594939210610c81575b505050811b015f55610271565b01515f1960f88460031b161c191690555f8080610c74565b92936020600181928786015181550195019301610c5e565b5f80529091507f290decd9548b62a8d60345a988386fc84ba6bc95484008f6362f93160ef3e563601f840160051c81019160208510610d14575b90601f859493920160051c01905b818110610d065750610247565b5f8155849350600101610cf9565b9091508190610ceb565b91607f1691610233565b5f80fd5b6040519190601f01601f191682016001600160401b038111838210176106a557604052565b81601f82011215610d28578051906001600160401b0382116106a557610d80601f8301601f1916602001610d2c565b9282845260208383010111610d2857815f9260208093018386015e8301015290565b600b80546001600160a01b039283166001600160a01b0319821681179092559091167f8be0079c531659141344cd1fd0a4f28419497f9722a3daafe3b4186f6b6457e05f80a356fe60806040526004361015610011575f80fd5b5f3560e01c806301ffc9a7146101e457806306fdde03146101df578063081812fc146101da578063095ea7b3146101d557806318160ddd146101d057806323b872dd146101cb5780632f745c59146101c657806337307c3d146101c157806342842e0e146101bc5780634f6ccce7146101b75780635b07c9a7146101b25780636352211e146101ad5780636f5e80d8146101a857806370a08231146101a3578063715018a61461019e5780638da5cb5b1461019957806395d89b4114610194578063a0426f7c1461018f578063a22cb4651461018a578063b4720c9214610185578063b88d4fde14610180578063c87b56dd1461017b578063cd6d8f8514610176578063cef2646d14610171578063def6fc5f1461016c578063e985e9c514610167578063f1386cd614610162578063f2fde38b1461015d5763f851a44014610158575f80fd5b611d10565b611c44565b611b26565b6119f3565b6119d6565b61194e565b61145a565b611306565b6112a7565b610e0c565b610c1c565b610b2c565b6108c6565b61089e565b610843565b610818565b6107fb565b6107dd565b6107c0565b610716565b6106ed565b610644565b610592565b610569565b610512565b61043e565b6103a1565b6102ca565b6101ff565b6001600160e01b03198116036101fb57565b5f80fd5b346101fb5760203660031901126101fb5760043561021c816101e9565b63ffffffff60e01b1663780e9d6360e01b8114908115610245575b506040519015158152602090f35b6380ac58cd60e01b811491508115610277575b8115610266575b505f610237565b6301ffc9a760e01b1490505f61025f565b635b5e139f60e01b81149150610258565b5f9103126101fb57565b805180835260209291819084018484015e5f828201840152601f01601f1916010190565b9060206102c7928181520190610292565b90565b346101fb575f3660031901126101fb576040515f80546102e9816114fb565b808452906001811690811561037d5750600114610321575b61031d8361031181850382610d6f565b604051918291826102b6565b0390f35b5f8080527f290decd9548b62a8d60345a988386fc84ba6bc95484008f6362f93160ef3e563939250905b80821061036357509091508101602001610311610301565b91926001816020925483858801015201910190929161034b565b60ff191660208086019190915291151560051b840190910191506103119050610301565b346101fb5760203660031901126101fb5760206103bf600435611d38565b6040516001600160a01b039091168152f35b600435906001600160a01b03821682036101fb57565b604435906001600160a01b03821682036101fb57565b602435906001600160a01b03821682036101fb57565b61018435906001600160a01b03821682036101fb57565b35906001600160a01b03821682036101fb57565b346101fb5760403660031901126101fb576104576103d1565b60243561046381611f0f565b916001600160a01b0380841690821681146104c35761049593610490913314908115610497575b50611d74565b61294d565b005b6001600160a01b03165f90815260056020908152604080832033845290915281205460ff16915061048a565b60405162461bcd60e51b815260206004820152602160248201527f4552433732313a20617070726f76616c20746f2063757272656e74206f776e656044820152603960f91b6064820152608490fd5b346101fb575f3660031901126101fb576020600854604051908152f35b60609060031901126101fb576004356001600160a01b03811681036101fb57906024356001600160a01b03811681036101fb579060443590565b346101fb5761049561057a3661052f565b9161058d61058884336129b7565b611de6565b612a93565b346101fb5760403660031901126101fb576105ab6103d1565b602435906105b881611f31565b8210156105eb576001600160a01b03165f9081526006602090815260408083209383529281529082902054915191825290f35b60405162461bcd60e51b815260206004820152602b60248201527f455243373231456e756d657261626c653a206f776e657220696e646578206f7560448201526a74206f6620626f756e647360a81b6064820152608490fd5b346101fb5760403660031901126101fb5761065d6103d1565b602435601b54916106786001600160a01b0384163314611e48565b6001600160a01b0316806106cf5750601b545f9250829182918291906106ae906001600160a01b03165b6001600160a01b031690565b5af16106b8611e80565b50156106c057005b63036b46f360e01b5f5260045ffd5b610495926106e5906001600160a01b03166106a2565b903090612bf9565b346101fb576104956106fe3661052f565b906040519261070e602085610d6f565b5f845261242d565b346101fb5760203660031901126101fb576004356008548110156107665760085f527ff3f7a9fe364faab93b216da50a3214154f22a0a2b415b23a84c8169e8b636ee30154604051908152602090f35b60405162461bcd60e51b815260206004820152602c60248201527f455243373231456e756d657261626c653a20676c6f62616c20696e646578206f60448201526b7574206f6620626f756e647360a01b6064820152608490fd5b346101fb575f3660031901126101fb576020601c54604051908152f35b346101fb5760203660031901126101fb5760206103bf600435611f0f565b346101fb575f3660031901126101fb576020601d54604051908152f35b346101fb5760203660031901126101fb57602061083b6108366103d1565b611f31565b604051908152f35b346101fb575f3660031901126101fb5761085b612c42565b600b80546001600160a01b031981169091555f906001600160a01b03167f8be0079c531659141344cd1fd0a4f28419497f9722a3daafe3b4186f6b6457e08280a3005b346101fb575f3660031901126101fb57600b546040516001600160a01b039091168152602090f35b346101fb575f3660031901126101fb576040515f6001546108e6816114fb565b808452906001811690811561037d575060011461090d5761031d8361031181850382610d6f565b60015f9081527fb10e2d527612073b26eecdfd717e6a320cf44b4afac2b0732d9fcbe2b7fa0cf6939250905b80821061095157509091508101602001610311610301565b919260018160209254838588010152019101909291610939565b905f905b6004821061097c57505050565b8251805182526020908101516001600160a01b03168282015260019160400193019101909161096f565b60808201915f815b600482106109bd575050505090565b909192936020806109f68387600195038652885190836109e68351604084526040840190610292565b9201519084818403910152610292565b9601920192019092916109ae565b90602080835192838152019201905f5b818110610a215750505090565b8251845260209384019390920191600101610a14565b906102c7916020815281516020820152610160610b08610af0610ad8610a6e60208701516102606040880152610280870190610292565b604087015163ffffffff166060870152606087015163ffffffff166080870152610aa0608088015160a088019061096b565b60a087015115156101a087015260c08701516001600160a01b03166101c087015260e0870151868203601f19016101e08801526109a6565b610100860151858203601f1901610200870152610292565b610120850151848203601f1901610220860152610292565b610140840151151561024084015292015190610260601f1982850301910152610a04565b346101fb5760203660031901126101fb57600435604051610b4c81610d18565b5f8152606060208201525f60408201525f6060820152608060405190610b73608083610d6f565b5f5b818110610be15761031d610bd5610bd0876060610160898960808201525f60a08201525f60c0820152610ba6611fa6565b60e082015282610100820152826101208201525f61014082015201525f52600c60205260405f2090565b6120db565b60405191829182610a37565b602090604051610bf081610d39565b5f81525f838201528185015201610b75565b801515036101fb57565b6101643590610c1a82610c02565b565b346101fb5760403660031901126101fb57610c356103d1565b602435610c4181610c02565b6001600160a01b03821691338314610cbf5781610c7c610c8d92335f52600560205260405f209060018060a01b03165f5260205260405f2090565b9060ff801983541691151516179055565b604051901515815233907f17307eab39ab6107e8899845ad3d59bd9653f200f220920489ca2b5937696c3190602090a3005b60405162461bcd60e51b815260206004820152601960248201527f4552433732313a20617070726f766520746f2063616c6c6572000000000000006044820152606490fd5b634e487b7160e01b5f52604160045260245ffd5b61018081019081106001600160401b03821117610d3457604052565b610d04565b604081019081106001600160401b03821117610d3457604052565b608081019081106001600160401b03821117610d3457604052565b90601f801991011681019081106001600160401b03821117610d3457604052565b60405190610c1a61018083610d6f565b6001600160401b038111610d3457601f01601f191660200190565b929192610dc782610da0565b91610dd56040519384610d6f565b8294818452818301116101fb578281602093845f960137010152565b9080601f830112156101fb578160206102c793359101610dbb565b60803660031901126101fb57602435600435610e266103e7565b906064356001600160401b0381116101fb57610e46903690600401610df1565b91610e6e610e696016610e61855f52600c60205260405f2090565b015460ff1690565b6121ef565b610ed7610ea885610ea3610e9a6002610e8f885f52600c60205260405f2090565b015463ffffffff1690565b63ffffffff1690565b61223e565b610ed0610e9a6002610ec2875f52600c60205260405f2090565b015460201c63ffffffff1690565b1015612250565b610ee9825f52600c60205260405f2090565b90600b820154610ef98160ff1690565b908161122a575b5061121b575f9060038301906001600160a01b0316825b600481106110d4575b505050156110c557610f3184612333565b9260028201916017015f5b86811061102b575050601b54610f5d91506106a2906001600160a01b031681565b93610f7f610f72600d54935463ffffffff1690565b9163ffffffff83166123f5565b94803b156101fb5760405163d4cfd7b760e01b81523360048201526024810193909352604483019590955263ffffffff166064820152925f908490608490829084905af1928315611026577f63b7afc79e6379a07137b441dd4e3db719cc1f55602e7091a6f0f97f05eb25889361100c575b50611007600d5492604051938493339185612402565b0390a1005b8061101a5f61102093610d6f565b80610288565b5f610ff1565b612298565b60019061104b601c5461104581611040612365565b612cd5565b33612d2c565b61105784601c54612e51565b61108661107061106b875463ffffffff1690565b612390565b865463ffffffff191663ffffffff909116178655565b6110996110946016546123a7565b601655565b6110b1601c54806110aa848b6123b5565b52846123c9565b6110bf6001601c5401601c55565b01610f3c565b630b27db6160e11b5f5260045ffd5b816110df82856122a3565b50600101546001600160a01b0316146110fa57600101610f17565b600193509061110982846122a3565b505415610f205787816111b95750505f8080936111986111608395611130346110406122ce565b6111938d61118b61114c61114485896122a3565b5054836122bb565b93611170611168611160601d5480986122bb565b612710900490565b6110406122f7565b601b54611185906001600160a01b03166106a2565b976122a3565b5054906122bb565b6122bb565b908282156111b0575bf115611026575b5f8080610f20565b506108fc6111a1565b6111606111fd6111f5856111e36111db6112069661118b8b9a6112169c6122a3565b303389612bf9565b601b546001600160a01b0316966122a3565b50548b6122bb565b601d54906122bb565b916001600160a01b031690612c9a565b6111a8565b6316f8624360e11b5f5260045ffd5b61124291506106a29060081c6001600160a01b031681565b6040516370a0823160e01b815233600482015290602090829060249082905afa908115611026575f91611278575b50155f610f00565b61129a915060203d6020116112a0575b6112928183610d6f565b810190612289565b5f611270565b503d611288565b346101fb5760803660031901126101fb576112c06103d1565b6112c86103fd565b90604435606435926001600160401b0384116101fb57366023850112156101fb57611300610495943690602481600401359101610dbb565b9261242d565b346101fb5760203660031901126101fb5761031d611325600435612fe7565b604051918291602083526020830190610292565b80608312156101fb5760405190611351608083610d6f565b819080610164116101fb576064915b610164831061136f5750505090565b6040838303126101fb576020604091825161138981610d39565b8535815261139883870161042a565b83820152815201920191611360565b9080601f830112156101fb57604051916113c2608084610d6f565b8260808201918383116101fb5780915b8383106113e157505050505090565b82356001600160401b0381116101fb5782016040818703126101fb576040519161140a83610d39565b81356001600160401b0381116101fb5787611426918401610df1565b83526020820135926001600160401b0384116101fb5761144b88602095869501610df1565b838201528152019201916113d2565b6101c03660031901126101fb576004356001600160401b0381116101fb57611486903690600401610df1565b6024356001600160401b0381116101fb576114a5903690600401610df1565b9060443563ffffffff811681036101fb576114bf36611339565b6114c7610c0c565b906114d0610413565b926101a435956001600160401b0387116101fb576114f56104959736906004016113a7565b95612459565b90600182811c92168015611529575b602083101461151557565b634e487b7160e01b5f52602260045260245ffd5b91607f169161150a565b604051905f82600f5491611546836114fb565b80835292600181169081156115c9575060011461156a575b610c1a92500383610d6f565b50600f5f90815290917f8d1108e10bcb7c27dddfc02ed9d693a074039d026cf4ea4240b40f7d581ac8025b8183106115ad575050906020610c1a9282010161155e565b6020919350806001915483858901015201910190918492611595565b60209250610c1a94915060ff191682840152151560051b82010161155e565b604051905f82601154916115fb836114fb565b80835292600181169081156115c9575060011461161e57610c1a92500383610d6f565b5060115f90815290917f31ecc21a745e3968a04e9570e4425bc18fa8019c68028196b546d1669c200c685b818310611661575050906020610c1a9282010161155e565b6020919350806001915483858901015201910190918492611649565b604051905f8260125491611690836114fb565b80835292600181169081156115c957506001146116b357610c1a92500383610d6f565b5060125f90815290917fbb8a6a4669ba250d26cd7a459eca9d215f8307e33aebe50379bc5a3617ec34445b8183106116f6575050906020610c1a9282010161155e565b60209193508060019154838589010152019101909184926116de565b604051905f8260135491611725836114fb565b80835292600181169081156115c9575060011461174857610c1a92500383610d6f565b5060135f90815290917f66de8ffda797e3de9c05e8fc57b3bf0ec28a930d40b0d285d93c06501cf6a0905b81831061178b575050906020610c1a9282010161155e565b6020919350806001915483858901015201910190918492611773565b604051905f82601554916117ba836114fb565b80835292600181169081156115c957506001146117dd57610c1a92500383610d6f565b5060155f90815290917f55f448fdea98c4d29eb340757ef0a66cd03dbb9538908a6a81d96026b71ec4755b818310611820575050906020610c1a9282010161155e565b6020919350806001915483858901015201910190918492611808565b9060405191825f82549261184f846114fb565b80845293600181169081156118b85750600114611874575b50610c1a92500383610d6f565b90505f9291925260205f20905f915b81831061189c575050906020610c1a928201015f611867565b6020919350806001915483858901015201910190918492611883565b905060209250610c1a94915060ff191682840152151560051b8201015f611867565b979463ffffffff61193895816119096101009b969d9e9d6101208e6119469d9881528160208201520190610292565b961660408c01521660608a0152151560808901526001600160a01b031660a088015286820360c0880152610292565b9084820360e0860152610292565b931515910152565b346101fb5760203660031901126101fb576004355f52600c60205260405f20805461031d61197e6001840161183c565b600284015493600b8101546119956014830161183c565b9060ff60166119a66015860161183c565b940154169360405197889760ff60018060a01b038560081c1694169263ffffffff808460201c169316918a6118da565b346101fb575f3660031901126101fb576020601954604051908152f35b346101fb5760403660031901126101fb57602060ff611a43611a136103d1565b611a1b6103fd565b6001600160a01b039182165f9081526005865260408082209290931681526020919091522090565b54166040519015158152f35b906002821015611a5c5752565b634e487b7160e01b5f52602160045260245ffd5b979495611ad7899b9e9d9b611b0798611aca610c1a9f9b969860606101609f9a611af39a611ab4611ac292611ae59b895261018060208a0152610180890190610292565b908782036040890152610292565b940190611a4f565b8b820360808d0152610292565b9089820360a08b0152610292565b9087820360c0890152610292565b9160e0860152848203610100860152610292565b6101208301979097526101408201526001600160a01b03909216910152565b346101fb575f3660031901126101fb57600d54604051905f82600e5491611b4c836114fb565b8083529260018116908115611c255750600114611bc6575b611b7092500383610d6f565b61031d611b7b611533565b60ff60105416611b896115e8565b611b9161167d565b611b99611712565b60145490611ba56117a7565b92601654946017549660018060a01b0360185416986040519c8d9c8d611a70565b50600e5f90815290917fbb7b4a454dc3493923482f07822329ed19e8244eff582cc204f8554c3620c3fd5b818310611c09575050906020611b7092820101611b64565b6020919350806001915483858901015201910190918492611bf1565b60209250611b7094915060ff191682840152151560051b820101611b64565b346101fb5760203660031901126101fb57611c5d6103d1565b611c65612c42565b6001600160a01b03811615611cbc57600b80546001600160a01b039283166001600160a01b0319821681179092559091167f8be0079c531659141344cd1fd0a4f28419497f9722a3daafe3b4186f6b6457e05f80a3005b60405162461bcd60e51b815260206004820152602660248201527f4f776e61626c653a206e6577206f776e657220697320746865207a65726f206160448201526564647265737360d01b6064820152608490fd5b346101fb575f3660031901126101fb57601b546040516001600160a01b039091168152602090f35b5f81815260026020526040902054611d5a906001600160a01b03161515611ec3565b5f908152600460205260409020546001600160a01b031690565b15611d7b57565b60405162461bcd60e51b815260206004820152603d60248201527f4552433732313a20617070726f76652063616c6c6572206973206e6f7420746f60448201527f6b656e206f776e6572206f7220617070726f76656420666f7220616c6c0000006064820152608490fd5b15611ded57565b60405162461bcd60e51b815260206004820152602d60248201527f4552433732313a2063616c6c6572206973206e6f7420746f6b656e206f776e6560448201526c1c881bdc88185c1c1c9bdd9959609a1b6064820152608490fd5b15611e4f57565b60405162461bcd60e51b815260206004820152600960248201526827a7262ca0a226a4a760b91b6044820152606490fd5b3d15611eaa573d90611e9182610da0565b91611e9f6040519384610d6f565b82523d5f602084013e565b606090565b634e487b7160e01b5f52603260045260245ffd5b15611eca57565b60405162461bcd60e51b815260206004820152601860248201527f4552433732313a20696e76616c696420746f6b656e20494400000000000000006044820152606490fd5b5f908152600260205260409020546001600160a01b03166102c7811515611ec3565b6001600160a01b03168015611f4f575f52600360205260405f205490565b60405162461bcd60e51b815260206004820152602960248201527f4552433732313a2061646472657373207a65726f206973206e6f7420612076616044820152683634b21037bbb732b960b91b6064820152608490fd5b604051906080611fb68184610d6f565b825f5b828110611fc557505050565b602090604051611fd481610d39565b606081526060838201528184015201611fb9565b9060405191611ff683610d54565b5f835b6004821061200657505050565b6002602060019260405161201981610d39565b86548152848060a01b03858801541683820152815201930191019091611ff9565b906040519161204883610d54565b5f835b6004821061205857505050565b6002602060019260405161206b81610d39565b6120748761183c565b815261208185880161183c565b8382015281520193019101909161204b565b90604051918281549182825260208201905f5260205f20925f5b8181106120c2575050610c1a92500383610d6f565b84548352600194850194879450602090930192016120ad565b906121e760176120e9610d90565b93805485526120fa6001820161183c565b6020860152612140612133600283015461212761211a8263ffffffff1690565b63ffffffff1660408a0152565b60201c63ffffffff1690565b63ffffffff166060870152565b61214c60038201611fe8565b6080860152612191612181600b8301546121726121698260ff1690565b151560a08a0152565b60081c6001600160a01b031690565b6001600160a01b031660c0870152565b61219d600c820161203a565b60e08601526121ae6014820161183c565b6101008601526121c06015820161183c565b6101208601526121e16121d7601683015460ff1690565b1515610140870152565b01612093565b610160830152565b156121f657565b60405162461bcd60e51b815260206004820152600c60248201526b114e90d85d139bd15e1a5cdd60a21b6044820152606490fd5b634e487b7160e01b5f52601160045260245ffd5b9190820180921161224b57565b61222a565b1561225757565b60405162461bcd60e51b815260206004820152600a602482015269229d2737a9ba37b1b59760b11b6044820152606490fd5b908160209103126101fb575190565b6040513d5f823e3d90fd5b9060048110156122b65760011b01905f90565b611eaf565b8181029291811591840414171561224b57565b604051906122dd604083610d6f565b600b82526a036b9b3973b30b63ab29d160ad1b6020830152565b60405190612306604083610d6f565b6007825266436f737420203160c81b6020830152565b6001600160401b038111610d345760051b60200190565b9061233d8261231c565b61234a6040519182610d6f565b828152809261235b601f199161231c565b0190602036910137565b60405190612374604083610d6f565b600d82526c02a35b71021b7bab73a32b91d1609d1b6020830152565b63ffffffff1663ffffffff811461224b5760010190565b5f19811461224b5760010190565b80518210156122b65760209160051b010190565b90815491600160401b831015610d3457600183018082558310156122b6575f9081526020902090910155565b9190820391821161224b57565b90926080926102c795948352602083015260018060a01b031660408201528160608201520190610a04565b91610c1a93916124549361244461058884336129b7565b61244f838383612a93565b61321e565b612fc3565b91949092612465612c42565b6019549661247b885f52600c60205260405f2090565b908882556124d488600284016124988163ffffffff198154169055565b6124a588600187016126bd565b6124b289601587016126bd565b9067ffffffff0000000082549160201b169067ffffffff000000001916179055565b600382015f5b600481106126345750508680612623575b6126145761253284600b840161250d8a829060ff801983541691151516179055565b8054610100600160a81b03191660089290921b610100600160a81b0316919091179055565b600c82015f5b600481106125ed57505050601601805460ff1916600117905561255f600160195401601955565b601a54806125a5575b50907f0a93fa2f927a74a47cf4ad0fc6b28a9facb0a73c2599f408488a39328c554b18946125a092600d5497604051968796876128b6565b0390a3565b91909134106125de575f808080346125c76106a2601b5460018060a01b031690565b5af16125d1611e80565b50156106c057905f612568565b630fb2c9dd60e41b5f5260045ffd5b8061260e6125fd60019386612788565b5161260883866122a3565b906127d3565b01612538565b6318a6b01160e21b5f5260045ffd5b506001600160a01b038416156124eb565b8061265561264460019388612788565b5161264f83866122a3565b90612799565b016124da565b634e487b7160e01b5f525f60045260245ffd5b601f821161267b57505050565b5f5260205f20906020601f840160051c830193106126b3575b601f0160051c01905b8181106126a8575050565b5f815560010161269d565b9091508190612694565b91909182516001600160401b038111610d34576126e4816126de84546114fb565b8461266e565b6020601f82116001146127235781906127149394955f92612718575b50508160011b915f199060031b1c19161790565b9055565b015190505f80612700565b601f19821690612736845f5260205f2090565b915f5b81811061277057509583600195969710612758575b505050811b019055565b01515f1960f88460031b161c191690555f808061274e565b9192602060018192868b015181550194019201612739565b9060048110156122b65760051b0190565b906127ce578151815560209091015160019190910180546001600160a01b0319166001600160a01b0392909216919091179055565b61265b565b909291926127ce5782519283516001600160401b038111610d3457612802816127fc85546114fb565b8561266e565b6020601f8211600114612845579161283982602093600195610c1a98995f926127185750508160011b915f199060031b1c19161790565b84555b015191016126bd565b601f19821695612858855f5260205f2090565b965f5b81811061289e575092610c1a96976001959386938360209710612886575b505050811b01845561283c565b01515f1960f88460031b161c191690555f8080612879565b8383015189556001909801976020938401930161285b565b93916128e8906128da63ffffffff9399989795996101c088526101c0880190610292565b908682036020880152610292565b965f6040860152166060840152608083015f905b600482106129235750505015156101808201526001600160a01b039091166101a090910152565b8251805182526020908101516001600160a01b0316828201526001916040019301910190916128fc565b5f82815260046020526040902080546001600160a01b0319166001600160a01b0383161790556001600160a01b0361298483611f0f565b6001600160a01b0390921691167f8c5be1e5ebec7d5bd14f71427d1e84f3dd0314c0f7b2291e5b200ac8c7c3b9255f80a4565b6001600160a01b036129c883611f0f565b6001600160a01b0383169116818114939192908415612a09575b505082156129ef57505090565b9091506001600160a01b0390612a0490611d38565b161490565b5f9081526005602090815260408083206001600160a01b039490941683529290529081205460ff169350806129e2565b15612a4057565b60405162461bcd60e51b815260206004820152602560248201527f4552433732313a207472616e736665722066726f6d20696e636f72726563742060448201526437bbb732b960d91b6064820152608490fd5b612a9c83611f0f565b6001600160a01b038083169291612ab591168314612a39565b6001600160a01b038316928315612ba857612b2c82612ad88784612b8296613257565b612aee85612ae86106a28a611f0f565b14612a39565b612b13612b03885f52600460205260405f2090565b80546001600160a01b0319169055565b6001600160a01b03165f90815260036020526040902090565b80545f190190556001600160a01b0381165f90815260036020526040902060018154019055612b63855f52600260205260405f2090565b80546001600160a01b0319166001600160a01b03909216919091179055565b7fddf252ad1be2c89b69c2b068fc378daa952ba7f163c4a11628f55a4df523b3ef5f80a4565b60405162461bcd60e51b8152602060048201526024808201527f4552433732313a207472616e7366657220746f20746865207a65726f206164646044820152637265737360e01b6064820152608490fd5b6040516323b872dd60e01b60208201526001600160a01b039283166024820152929091166044830152606480830193909352918152610c1a91612c3d608483610d6f565b61302f565b600b546001600160a01b03163303612c5657565b606460405162461bcd60e51b815260206004820152602060248201527f4f776e61626c653a2063616c6c6572206973206e6f7420746865206f776e65726044820152fd5b60405163a9059cbb60e01b60208201526001600160a01b039092166024830152604480830193909352918152610c1a91612c3d606483610d6f565b5f91908291612d196040518092612d056020830195632d839cb360e21b8752604060248501526064840190610292565b90604483015203601f198101835282610d6f565b51906a636f6e736f6c652e6c6f675afa50565b90604051612d3b602082610d6f565b5f81526001600160a01b038316918215612e0d57610c1a938161245494612d84612d7f612d7b845f52600260205260018060a01b0360405f205416151590565b1590565b61339e565b612d8e828461337c565b5f82815260026020526040902054612daf906001600160a01b03161561339e565b6001600160a01b0383165f90815260036020526040902060018154019055612de383612b63845f52600260205260405f2090565b5f7fddf252ad1be2c89b69c2b068fc378daa952ba7f163c4a11628f55a4df523b3ef8180a4613159565b606460405162461bcd60e51b815260206004820152602060248201527f4552433732313a206d696e7420746f20746865207a65726f20616464726573736044820152fd5b5f818152600260205260409020549192916001600160a01b031615612f14575f52600a60205260405f2082516001600160401b038111610d3457612e99816126de84546114fb565b6020601f8211600114612ec85781906127149394955f926127185750508160011b915f199060031b1c19161790565b601f19821690612edb845f5260205f2090565b915f5b818110612efc5750958360019596971061275857505050811b019055565b9192602060018192868b015181550194019201612ede565b60405162461bcd60e51b815260206004820152602e60248201527f45524337323155524953746f726167653a2055524920736574206f66206e6f6e60448201526d32bc34b9ba32b73a103a37b5b2b760911b6064820152608490fd5b60809060208152603260208201527f4552433732313a207472616e7366657220746f206e6f6e20455243373231526560408201527131b2b4bb32b91034b6b83632b6b2b73a32b960711b60608201520190565b15612fca57565b60405162461bcd60e51b815280612fe360048201612f70565b0390fd5b5f81815260026020526040902054613009906001600160a01b03161515611ec3565b5f52600a60205261301c60405f2061183c565b5f60405161302b602082610d6f565b5290565b9061308f9160018060a01b03165f806040519361304d604086610d6f565b602085527f5361666545524332303a206c6f772d6c6576656c2063616c6c206661696c6564602086015260208151910182855af1613089611e80565b9161356a565b80518061309a575050565b6020908201829003126101fb57602001516130b481610c02565b156130bb57565b60405162461bcd60e51b815260206004820152602a60248201527f5361666545524332303a204552433230206f7065726174696f6e20646964206e6044820152691bdd081cdd58d8d9595960b21b6064820152608490fd5b908160209103126101fb57516102c7816101e9565b6001600160a01b0391821681529116602082015260408101919091526080606082018190526102c792910190610292565b91823b1561321657613187926020925f604051809681958294630a85bd0160e11b8452843360048601613128565b03926001600160a01b03165af15f91816131e5575b506131cf576131a9611e80565b805190816131ca5760405162461bcd60e51b815280612fe360048201612f70565b602001fd5b6001600160e01b031916630a85bd0160e11b1490565b61320891925060203d60201161320f575b6132008183610d6f565b810190613113565b905f61319c565b503d6131f6565b505050600190565b919290803b1561324e57613187935f60209460405196879586948593630a85bd0160e11b85523360048601613128565b50505050600190565b9091906001600160a01b03811690816132a15750613274826133ea565b6001600160a01b0383168061328f575050610c1a915061347b565b03613298575050565b610c1a91613443565b6001600160a01b03841682036132b8575b50613274565b6132c181611f31565b5f1981019190821161224b575f91613319613326928685526007602052604085205483810361332d575b50846132ff885f52600760205260405f2090565b556001600160a01b03165f90815260066020526040902090565b905f5260205260405f2090565b555f6132b2565b868652600660205260408620848752602052613375604087205480613366846133198760018060a01b03165f52600660205260405f2090565b555f52600760205260405f2090565b555f6132eb565b90613386816133ea565b6001600160a01b03821661329857610c1a915061347b565b156133a557565b60405162461bcd60e51b815260206004820152601c60248201527f4552433732313a20746f6b656e20616c7265616479206d696e746564000000006044820152606490fd5b600854815f52600960205260405f2055600854600160401b811015610d3457600181016008556008548110156122b65760085f527ff3f7a9fe364faab93b216da50a3214154f22a0a2b415b23a84c8169e8b636ee30155565b9061344d82611f31565b9160018060a01b03165f52600660205260405f20825f526020528060405f20555f52600760205260405f2055565b6008545f1981019181831161224b57805f5260096020528160405f20549310156122b65760085f527ff3f7a9fe364faab93b216da50a3214154f22a0a2b415b23a84c8169e8b636ee2820154918310156122b6577ff3f7a9fe364faab93b216da50a3214154f22a0a2b415b23a84c8169e8b636ee383018290555f91825260096020526040808320939093558152908120556008548015613556575f198101906008548210156122b65760085f8181527ff3f7a9fe364faab93b216da50a3214154f22a0a2b415b23a84c8169e8b636ee29092019190915555565b634e487b7160e01b5f52603160045260245ffd5b919290156135cc575081511561357e575090565b3b156135875790565b60405162461bcd60e51b815260206004820152601d60248201527f416464726573733a2063616c6c20746f206e6f6e2d636f6e74726163740000006044820152606490fd5b8251909150156135df5750805190602001fd5b60405162461bcd60e51b8152908190612fe390600483016102b656fea26469706673582212202a0b3d60b439f460d16f8edd02e1cde1edea261ea5c7d4916dd0359a3651c59164736f6c634300081a0033a2646970667358221220d2e0c5b1867601a07258e014103cb37f4a96ea2c059220817b05cc58675149f964736f6c634300081a0033",
  "devdoc": {
    "kind": "dev",
    "methods": {
      "createNewEvent(string,string,(uint256,string,string,uint8,string,string,string,uint256,string,uint256,uint256,address))": {
        "details": "Create A new Event."
      },
      "owner()": {
        "details": "Returns the address of the current owner."
      },
      "renounceOwnership()": {
        "details": "Leaves the contract without owner. It will not be possible to call `onlyOwner` functions anymore. Can only be called by the current owner. NOTE: Renouncing ownership will leave the contract without an owner, thereby removing any functionality that is only available to the owner."
      },
      "transferOwnership(address)": {
        "details": "Transfers ownership of the contract to a new account (`newOwner`). Can only be called by the current owner."
      }
    },
    "version": 1
  },
  "userdoc": {
    "kind": "user",
    "methods": {},
    "version": 1
  },
  "storageLayout": {
    "storage": [
      {
        "astId": 601,
        "contract": "src/EventManager.sol:EventManager",
        "label": "_owner",
        "offset": 0,
        "slot": "0",
        "type": "t_address"
      },
      {
        "astId": 13255,
        "contract": "src/EventManager.sol:EventManager",
        "label": "_events",
        "offset": 0,
        "slot": "1",
        "type": "t_mapping(t_uint256,t_address)"
      },
      {
        "astId": 13258,
        "contract": "src/EventManager.sol:EventManager",
        "label": "_counter",
        "offset": 0,
        "slot": "2",
        "type": "t_struct(Counter)3057_storage"
      },
      {
        "astId": 13263,
        "contract": "src/EventManager.sol:EventManager",
        "label": "_ownersEvents",
        "offset": 0,
        "slot": "3",
        "type": "t_mapping(t_address,t_array(t_uint256)dyn_storage)"
      },
      {
        "astId": 13269,
        "contract": "src/EventManager.sol:EventManager",
        "label": "_ticketSales",
        "offset": 0,
        "slot": "4",
        "type": "t_mapping(t_address,t_array(t_struct(TicketSale)13251_storage)dyn_storage)"
      },
      {
        "astId": 13271,
        "contract": "src/EventManager.sol:EventManager",
        "label": "eventCreationFee",
        "offset": 0,
        "slot": "5",
        "type": "t_uint256"
      },
      {
        "astId": 13284,
        "contract": "src/EventManager.sol:EventManager",
        "label": "ticketCategoryCreationFee",
        "offset": 0,
        "slot": "6",
        "type": "t_uint256"
      },
      {
        "astId": 13287,
        "contract": "src/EventManager.sol:EventManager",
        "label": "ticketTransactionFee",
        "offset": 0,
        "slot": "7",
        "type": "t_uint256"
      }
    ],
    "types": {
      "t_address": {
        "encoding": "inplace",
        "label": "address",
        "numberOfBytes": "20"
      },
      "t_array(t_struct(TicketSale)13251_storage)dyn_storage": {
        "base": "t_struct(TicketSale)13251_storage",
        "encoding": "dynamic_array",
        "label": "struct EventManager.TicketSale[]",
        "numberOfBytes": "32"
      },
      "t_array(t_uint256)dyn_storage": {
        "base": "t_uint256",
        "encoding": "dynamic_array",
        "label": "uint256[]",
        "numberOfBytes": "32"
      },
      "t_mapping(t_address,t_array(t_struct(TicketSale)13251_storage)dyn_storage)": {
        "encoding": "mapping",
        "key": "t_address",
        "label": "mapping(address => struct EventManager.TicketSale[])",
        "numberOfBytes": "32",
        "value": "t_array(t_struct(TicketSale)13251_storage)dyn_storage"
      },
      "t_mapping(t_address,t_array(t_uint256)dyn_storage)": {
        "encoding": "mapping",
        "key": "t_address",
        "label": "mapping(address => uint256[])",
        "numberOfBytes": "32",
        "value": "t_array(t_uint256)dyn_storage"
      },
      "t_mapping(t_uint256,t_address)": {
        "encoding": "mapping",
        "key": "t_uint256",
        "label": "mapping(uint256 => address)",
        "numberOfBytes": "32",
        "value": "t_address"
      },
      "t_struct(Counter)3057_storage": {
        "encoding": "inplace",
        "label": "struct Counters.Counter",
        "members": [
          {
            "astId": 3056,
            "contract": "src/EventManager.sol:EventManager",
            "label": "_value",
            "offset": 0,
            "slot": "0",
            "type": "t_uint256"
          }
        ],
        "numberOfBytes": "32"
      },
      "t_struct(TicketSale)13251_storage": {
        "encoding": "inplace",
        "label": "struct EventManager.TicketSale",
        "members": [
          {
            "astId": 13246,
            "contract": "src/EventManager.sol:EventManager",
            "label": "eventId",
            "offset": 0,
            "slot": "0",
            "type": "t_uint256"
          },
          {
            "astId": 13248,
            "contract": "src/EventManager.sol:EventManager",
            "label": "startTicket",
            "offset": 0,
            "slot": "1",
            "type": "t_uint256"
          },
          {
            "astId": 13250,
            "contract": "src/EventManager.sol:EventManager",
            "label": "endTicket",
            "offset": 0,
            "slot": "2",
            "type": "t_uint256"
          }
        ],
        "numberOfBytes": "96"
      },
      "t_uint256": {
        "encoding": "inplace",
        "label": "uint256",
        "numberOfBytes": "32"
      }
    }
  }
}